:100000000C94F4000C941C010C941C010C941C0125
:100010000C941C010C941C010C941C010C941C01EC
:100020000C941C010C941C010C945A0C0C94EC0ABA
:100030000C941C010C941C010C941C010C941C01CC
:100040000C941C010C941C010C941C010C941C01BC
:100050000C941C010C941C010C941C010C94DC04E9
:100060000C941C010C941C010C941C010C941C019C
:100070000C941C010C941C010C941C010C941C018C
:100080000C941C010C941C010C941C010C941C017C
:100090000C941C010C941C010C941C010C941C016C
:1000A0000C941C010C941C010C941C01F905FE0518
:1000B00003060D06170661066106610621062B067A
:1000C00035063F064C066106540682068506740610
:1000D00078067E06A606A606A60689068D06910661
:1000E00097069B06A606A1060000000200090F0065
:1000F00000030401000C00000000000000000000EC
:1001000000000000000004080201104080401020A0
:1001100040804080080204018040201002011080CD
:1001200010204040040404040403040502020202F7
:100130000403020202020606060606060404020280
:10014000020400000000250028002B002E003100D2
:1001500000000000240027002A002D003000080BBA
:100160000002020201000904000001020200000571
:1001700024001001052401010104240206052406BF
:1001800000010705810310004009040100020A0074
:10019000000007050202400000070583024000003E
:1001A00012010002EF0201404123378000010102E9
:1001B00003011201000200000040412337800001CA
:1001C0000102030141726475696E6F204C4C43005B
:1001D00041726475696E6F204D6963726F0004032C
:1001E00009042E03FD07320311241FBECFEFDAE00E
:1001F000DEBFCDBF11E0A0E0B1E0EEEAFBE102C05E
:1002000005900D92A837B107D9F722E0A8E7B1E031
:1002100001C01D92A530B207E1F711E0C6EED1E0B2
:1002200004C02297FE010E94C60DC23ED107C9F745
:100230000E94F30C0C94CA0D0C94000008950895CC
:100240000F931F93CF93DF93EC018B01688179812A
:100250008E810E94D30568817981601B710B88852E
:100260000E94D3050E9426056A837B838C839D832D
:10027000DF91CF911F910F9108950F931F93CF930B
:10028000DF93EC018B016881798188850E94D30519
:1002900068817981601B710B8E810E94D3050E9459
:1002A00026056A837B838C839D83DF91CF911F9189
:1002B0000F9108950F931F93CF93DF938C01EB0160
:1002C0006F3F710509F024F4FC017183608302C063
:1002D000CFEFD0E0BE01F80186810E94D305BE01B8
:1002E000F80180850E94D3050E942605F8016283EB
:1002F000738384839583DF91CF911F910F9108952C
:10030000FC0142835383648375830895CF93DF9305
:10031000EC0160E070E00E945A0160E088890E9470
:10032000E00661E08E850E94E00660E08C850E9418
:10033000E00661E08A850E94E00668EC70E0CE018C
:100340000E945A010E9426056A837B838C839D83C9
:10035000DF91CF910895CF93DF93EC0160E070E0DF
:100360000E945A0160E08E850E94E00661E0888963
:100370000E94E00660E08A850E94E00661E08C85CC
:100380000E94E0060E9426056A837B838C839D83FE
:10039000DF91CF910895CF93DF93EC0160E070E09F
:1003A0000E945A0160E08E850E94E00661E0888923
:1003B0000E94E00660E08C850E94E00661E08A858C
:1003C0000E94E0060E9426056A837B838C839D83BE
:1003D000DF91CF910895CF93DF93EC0160E070E05F
:1003E0000E945A0160E088890E94E00661E08E85E3
:1003F0000E94E00660E08A850E94E00661E08C854C
:100400000E94E0060E9426056A837B838C839D837D
:10041000DF91CF910895CF93DF93EC0160E070E01E
:100420000E945A016881798188850E94D30568817C
:1004300079818E810E94D30560E088890E94E00660
:1004400060E08E850E94E00660E08C850E94E006F8
:1004500060E08A85DF91CF910C94E006AF92BF9265
:10046000CF92DF92EF92FF920F931F93CF93DF9380
:1004700000D0CDB7DEB75C01862FF50166837783A8
:10048000408751872287338704871587E686F7865A
:10049000C08AD18A61E02A8349830E94A70661E06D
:1004A0004981842F0E94A70661E02A81822F0E9441
:1004B000A70661E0802F0E94A70661E08E2D0E94B2
:1004C000A70661E08C2D0E94A706C5010F900F9032
:1004D000DF91CF911F910F91FF90EF90DF90CF9020
:1004E000BF90AF900C940B02CF92DF92EF92FF92ED
:1004F0000F931F93CF93DF93EC016A017B010E945E
:1005000026050A811B812C813D81601B710B820BAA
:10051000930BC616D706E806F90658F4CE01DF910C
:10052000CF911F910F91FF90EF90DF90CF900C949F
:100530000B02DF91CF911F910F91FF90EF90DF9011
:10054000CF900895CF92DF92EF92FF920F931F9377
:1005500040E855E260E070E08EE991E00E94F70724
:1005600063E171E08EE991E00E94300885E0C82ED9
:10057000D12C96E0E92EF12C07E010E028E030E0E5
:1005800049E050E06AE070E081E891E00E942E02CC
:1005900061E083E00E94A70661E082E01F910F9175
:1005A000FF90EF90DF90CF900C94A7060F931F93CE
:1005B0000E94260500917D0110917E0120917F010E
:1005C00030918001601B710B820B930B643F714073
:1005D0008105910530F461E083E00E94E00660E06F
:1005E0002BC00E94260500917D0110917E01209173
:1005F0007F0130918001601B710B820B930B683E71
:10060000734081059105E8F40E94260500917D0163
:1006100010917E0120917F0130918001601B710B50
:10062000820B930B643F71408105910550F060E0AF
:1006300083E00E94E00661E082E01F910F910C943C
:10064000E0060E94260560937D0170937E018093F1
:100650007F01909380011F910F91089581E891E0AF
:100660000C941E0181E891E00C941F01CF93DF935D
:100670008EE991E00E94400708970CF491C16AE16D
:1006800071E08EE991E00E9436088EE991E00E94C7
:100690004007892B69F08EE991E00E9450078AE3B8
:1006A000809378016EE171E08EE991E00E94360856
:1006B000C9E7D1E08EE991E00E944007892B31F033
:1006C0008EE991E00E9450078993F4CF80917C01DC
:1006D0008634A1F520917901332727FD30952053E9
:1006E000310944E6429FC001439F900D112420919F
:1006F0007A01332727FD3095205331096AE0629F44
:10070000A001639F500D1124840F951F20917B0140
:10071000332727FD309520533109820F931F909383
:100720009401809393016AE271E08EE991E00E9466
:10073000360881E891E00E94CB01D3C08A3799F452
:1007400061E371E08EE991E00E94360880919301A7
:1007500090919401853F9105E8F4809193019091E7
:1007600094010A9613C0883741F568E371E08EE979
:1007700091E00E94360880919301909194014597F1
:1007800048F080919301909194010A97909394017D
:100790008093930160919301709194014AE050E03D
:1007A0008EE991E00E94AE080E942605AB01BC01D3
:1007B00081E891E00E948001F3C08C3469F56EE31A
:1007C00071E08EE991E00E943608809179019927C5
:1007D00087FD9095C09724E6289FB001299F700D52
:1007E000112480917A01992787FD9095C0974AE05E
:1007F000489F9001499F300D1124620F731F809113
:100800007B01992787FD9095C097680F791F81E834
:1008100091E00E942001C4C0823569F564E471E072
:100820008EE991E00E94360880917901992787FD31
:100830009095C09724E6289FB001299F700D112440
:1008400080917A01992787FD9095C0974AE0489F4B
:100850009001499F300D1124620F731F80917B011D
:10086000992787FD9095C097680F791F81E891E0DF
:100870000E943D0195C0823409F046C06CE471E0ED
:100880008EE991E00E94360881E891E00E94EB0138
:1008900020917901332727FD30952053310944E613
:1008A000429FC001439F900D112420917A0133276C
:1008B00027FD3095205331096AE0629FA001639FB4
:1008C000500D1124840F951F20917B01332727FDA4
:1008D000309520533109820F931F90939401809398
:1008E0009301609193017091940181E891E00E94DD
:1008F0005A0160919301709194014AE050E08EE9B1
:1009000091E00E94AE084CC0833559F461E571E076
:100910008EE991E00E94360881E891E00E940B0286
:100920003FC08C3659F46FE371E08EE991E00E948C
:10093000360881E891E00E94AB010CC0823781F556
:1009400066E471E08EE991E00E94360881E891E06A
:100950000E94860180917901992787FD9095C09723
:1009600024E6289FB001299F700D112480917A01FF
:10097000992787FD9095C0974AE0489F9001499F2D
:10098000300D1124620F731F80917B01992787FD21
:100990009095C097680F791F81E891E00E945A01F5
:1009A0000E94D60248EE53E060E070E081E891E0FA
:1009B000DF91CF910C9474021F920F920FB60F9299
:1009C00011242F933F938F939F93AF93BF93809165
:1009D000960190919701A0919801B0919901309161
:1009E000950123E0230F2D3720F40196A11DB11DA1
:1009F00005C026E8230F0296A11DB11D2093950185
:100A00008093960190939701A0939801B0939901D8
:100A100080919A0190919B01A0919C01B0919D01C0
:100A20000196A11DB11D80939A0190939B01A09303
:100A30009C01B0939D01BF91AF919F918F913F9188
:100A40002F910F900FBE0F901F9018952FB7F8940D
:100A50006091960170919701809198019091990110
:100A60002FBF08953FB7F89480919A0190919B0110
:100A7000A0919C01B0919D0126B5A89B05C02F3F78
:100A800019F00196A11DB11D3FBF6627782F892F50
:100A90009A2F620F711D811D911D42E0660F771F15
:100AA000881F991F4A95D1F70895CF92DF92EF9250
:100AB000FF92CF93DF936B017C010E943205EB0123
:100AC000C114D104E104F10489F00E94060D0E94D2
:100AD00032056C1B7D0B683E734090F381E0C81AB1
:100AE000D108E108F108C851DC4FEACFDF91CF917E
:100AF000FF90EF90DF90CF900895789484B5826056
:100B000084BD84B5816084BD85B5826085BD85B5B1
:100B1000816085BDEEE6F0E0808181608083E1E860
:100B2000F0E0108280818260808380818160808398
:100B3000E0E8F0E0808181608083E1E9F0E080819D
:100B400082608083808181608083E0E9F0E0808141
:100B500081608083E1ECF0E080818460808380812B
:100B600082608083808181608083E3ECF0E080811B
:100B700081608083E0ECF0E0808182608083E2EC41
:100B8000F0E0808181608083EAE7F0E0808184602A
:100B90008083808182608083808181608083808186
:100BA0008068808308951F93CF93DF93182FEB0104
:100BB00061E00E94A706209711F460E004C0CF3FD7
:100BC000D10539F461E0812FDF91CF911F910C9411
:100BD000E006E12FF0E0E851FF4F449150E0FA01C8
:100BE0003197EF30F10508F06CC0EA5AFF4F0C94D2
:100BF000C40D84B5806884BDC7BD68C084B58062FB
:100C000084BDC8BD63C080918000806880938000EF
:100C1000D0938900C093880059C080918000806281
:100C200080938000D0938B00C0938A004FC0809146
:100C30008000886080938000D0938D00C0938C00EA
:100C400045C080919000806880939000D093990077
:100C5000C09398003BC08091900080628093900088
:100C6000D0939B00C0939A0031C08091900088601F
:100C700080939000D0939D00C0939C0027C08091EA
:100C8000C00080688093C0008091C0008F7B8093FB
:100C9000C000C093CF001AC08091C00080628093D2
:100CA000C000C093D00012C08091C20088608093C1
:100CB000C2008091C2008B7F8093C200C093D2009B
:100CC00005C0C038D1050CF07DCF77CFDF91CF9133
:100CD0001F91089590E0FC013197EF30F105B0F5D8
:100CE000EB59FF4F0C94C40D809180008F7703C0A7
:100CF000809180008F7D8093800008958091800096
:100D0000877FF9CF84B58F7702C084B58F7D84BD8E
:100D10000895809190008F7707C0809190008F7D1B
:100D200003C080919000877F809390000895809108
:100D3000C0008F7703C08091C0008F7D8093C0007A
:100D400008958091C200877F8093C2000895CF9359
:100D5000DF9390E0FC01EA5FFE4F2491FC01EC5D23
:100D6000FE4F8491882349F190E0880F991FFC0180
:100D7000E05BFE4FA591B4918E5B9E4FFC01C59147
:100D8000D4919FB7611108C0F8948C91209582236B
:100D90008C93888182230AC0623051F4F8948C913C
:100DA000322F309583238C938881822B888304C0D3
:100DB000F8948C91822B8C939FBFDF91CF910895F3
:100DC0000F931F93CF93DF931F92CDB7DEB7282FDA
:100DD00030E0F901E851FF4F8491F901EA5FFE4FDD
:100DE0001491F901EC5DFE4F04910023C9F08823B2
:100DF00021F069830E946A066981E02FF0E0EE0F1E
:100E0000FF1FEE5BFE4FA591B4919FB7F8948C91B4
:100E1000611103C01095812301C0812B8C939FBF6A
:100E20000F90DF91CF911F910F910895CF93DF9392
:100E30001F92CDB7DEB76983DC01ED91FC91028092
:100E4000F381E02D41E050E0BE016F5F7F4F0995D7
:100E50000F90DF91CF910895CF93DF93EC018C85B4
:100E60009D8597FF05C082E00E94D5099D878C87EC
:100E70008C859D85DF91CF91089583E00C94500C73
:100E8000FC018485958597FD06C082E00E947D095E
:100E900090E00196089582E00E947D0990E0089517
:100EA000FC018485958597FD05C02FEF3FEF3587C1
:100EB0002487089582E00C94D509CF93DF93EC0149
:100EC00080910B01882331F083E00E94060A1816F6
:100ED000190634F081E090E09B838A8380E090E003
:100EE000DF91CF910895FC0120812E5F208342E4A1
:100EF00050E06EE571E080E80C94A10AFC012181CC
:100F00008081813A59F4213209F05CC047E050E019
:100F100064E071E080E00E94A10A67C0813209F0BC
:100F200051C0233289F4838190E0982F8827328141
:100F3000832BA0E0B0E08093000190930101A09387
:100F40000201B09303010FC0203239F467E070E072
:100F500084E091E00E94D20A0AC0223221F4828108
:100F600080930B0104C02D7F203209F03EC0809198
:100F7000040190910501A0910601B0910701803B09
:100F80009440A105B10501F580910B0180FD1CC0C5
:100F900080910008909101089093FF0A8093FE0AC7
:100FA00087E797E790930108809300082BE088E19A
:100FB00090E00FB6F894A895809360000FBE209340
:100FC000600013C080E0089588E10FB6F894809324
:100FD0006000109260000FBEA8958091FE0A90916B
:100FE000FF0A909301088093000881E008952FEF95
:100FF0003FEFFC013587248708951092A1011092DC
:10100000A00188EE93E0A0E0B0E08093A20190936D
:10101000A301A093A401B093A5018AE591E0909368
:101020009F0180939E018FEF9FEF9093AB01809380
:10103000AA0108956115710581F0DB010D90002072
:10104000E9F7AD0141505109461B570BDC01ED9109
:10105000FC910280F381E02D099480E090E00895F6
:101060000C941A0866E671E00C941A080F931F930B
:10107000CF93DF93EC010E941A088C01CE010E94ED
:101080003208800F911FDF91CF911F910F9108952A
:101090008F929F92AF92BF92CF92DF92EF92FF9288
:1010A0000F931F93CF93DF93CDB7DEB7A1970FB602
:1010B000F894DEBF0FBECDBF7C01C42EE52FCB015F
:1010C000D22E19A221E02D1510F02AE0D22E8E0189
:1010D0000F5D1F4F8D2C912CA12CB12C6C2D7E2FD0
:1010E000A50194010E94A20D8C2DD29E801911247D
:1010F000015011098A3014F4805D01C0895CF80147
:101100008083211531054105510521F0C22EE32FC1
:10111000CA01E4CFB801C7010E941A08A1960FB610
:10112000F894DEBF0FBECDBFDF91CF911F910F911D
:10113000FF90EF90DF90CF90BF90AF909F908F90F7
:1011400008952115310541F4DC01ED91FC910190E8
:10115000F081E02D642F09940C9448080F931F939D
:10116000CF93DF93EC019A01AB0160E070E00E9445
:10117000A1088C01CE010E943208800F911FDF91DF
:10118000CF911F910F910895615030F02091F1009F
:10119000FC0120830196F8CF289A84E68093F7011A
:1011A00008954091F2015091F3012091F0013091A6
:1011B000F10142175307B4F49091E8009570E1F300
:1011C0009091E80092FD19C08093F1008091F201A6
:1011D0009091F30101968F739927892B19F48EEF63
:1011E0008093E8008091F2019091F3010196909331
:1011F000F3018093F20181E0089580E00895CF9299
:10120000DF92EF92FF920F931F93CF93DF931F9282
:10121000CDB7DEB7082F162FF42E862F880F8E5FDE
:1012200099830E94D10883E00E94D108E02EC02E4D
:101230009981D92E8C2D8E19811798F4F601F7FE1D
:1012400002C0849101C080810E94D108082F80E0F3
:101250000E94D1088023FFEFCF1ADF0A8111EACF65
:1012600001C081E00F90DF91CF911F910F91FF900E
:10127000EF90DF90CF9008958091D70081608093A8
:10128000D70080EA8093D80089B5806189BD89B58F
:10129000826089BD09B400FEFDCF61E070E080E0AE
:1012A00090E00E9455058091D8008F7C80618093EA
:1012B000D8008091E000807F8093E0000895CF9374
:1012C000DF931F92CDB7DEB71982CE0101960E943F
:1012D00073070E948E0DBE016F5F7F4F0E94070D46
:1012E00089810F90DF91CF9108952FB7FC01208362
:1012F000F89467706093E9000895CF93DF931F928D
:10130000CDB7DEB7682FCE0101960E947509809196
:10131000F20099819FBF0F90DF91CF910895FF92C6
:101320000F931F93CF93DF9300D0CDB7DEB7F62E88
:101330008A019091F601992311F057FF03C08FEFB6
:101340009FEF2BC0682FCE0101967A830E9475090A
:101350008091F20090E0A8017A81801791070CF447
:10136000AC01EF2DF72FF40E84E6FE1639F0289A23
:101370008093F7019091F1009193F7CF41155105BA
:1013800021F08091F200882321F089818FBFCA016A
:1013900004C08BE68093E800F8CF0F900F90DF91A8
:1013A000CF911F910F91FF900895CF93DF931F92DC
:1013B000CDB7DEB741E050E0BE016F5F7F4F0E94C6
:1013C0008F09019719F4898190E002C08FEF9FEF98
:1013D0000F90DF91CF910895CF93DF931F92CDB7F8
:1013E000DEB7682FCE0101960E9475099091E80042
:1013F000892F807295FF04C09091F20080E4891BD0
:1014000099819FBF0F90DF91CF9108956F927F9246
:101410008F929F92AF92BF92CF92DF92EF92FF9204
:101420000F931F93CF93DF931F92CDB7DEB7782E24
:101430007B01C42EB52E8091F601882369F0042F1C
:10144000152F8AEFD82E872D8072982E9AE3A92E19
:10145000872D8074882E11C08FEF9FEF57C0872D86
:101460000E94EC09682E81110CC0DA94A9F361E0A6
:1014700070E080E090E00E9455050115110579F7B4
:101480003BC0282F30E0021713070CF4602E672DA5
:10149000CE0101960E9475098091E80085FF29C060
:1014A000262D30E0021B130B992039F06A948FEF40
:1014B0006816B1F01092F100F9CFF701862D77FE92
:1014C00007C0815058F094919093F1003196F9CF74
:1014D000815020F091919093F100FACFE20EF31E2B
:1014E0008091E80085FF0FC00115110511F48110EE
:1014F0000AC089818FBFC1CF5D9A84E68093F801CD
:101500008C2D9B2D03C0A092E800F3CF0F90DF91AC
:10151000CF911F910F91FF90EF90DF90CF90BF90F0
:10152000AF909F908F907F906F9008951092E900F8
:101530001092F3011092F2019093F1018093F00167
:101540000895CF92DF92FF920F931F93CF93DF9373
:1015500000D0CDB7DEB7F82E8A016B010115110559
:10156000B1F0F601F7FE02C0849101C08081498389
:101570005A830E94D10801501109FFEFCF1ADF0AE8
:1015800049815A818111EACF8FEF9FEF01C0CA01D3
:101590000F900F90DF91CF911F910F91FF90DF90EF
:1015A000CF9008951F93CF93DF931F92CDB7DEB7EF
:1015B000162F2091E80022FFFCCF612F79830E9433
:1015C000C4088BEF8093E800812F7981972F0F90CB
:1015D000DF91CF911F9108951F920F920FB60F9236
:1015E0001124DF92EF92FF920F931F932F933F935B
:1015F0004F935F936F937F938F939F93AF93BF931B
:10160000EF93FF93CF93DF93CDB7DEB76C97DEBF39
:10161000CDBF1092E9008091E80083FF23C168E00C
:10162000CE0145960E94C40882EF8093E8003D8970
:1016300037FF05C08091E80080FFFCCF03C08EEF2C
:101640008093E800832F807609F0F0C02E894F89BF
:10165000D88C21110CC0303829F48091F501809389
:10166000F10002C01092F1001092F100F4C0842F3A
:1016700090E09D29213049F43111EDC0019709F026
:10168000EAC08091F5018D7F0AC0233059F43111F1
:10169000E2C0019709F0DFC08091F501826080937C
:1016A000F501D9C0253041F48091E80080FFFCCFDE
:1016B00040684093E300CFC0263009F08DC0EB8C2A
:1016C000FC8C22E0D2122CC080E090E00E94960AAE
:1016D0000E945F0999E08E010F5F1F4FF801292FCB
:1016E00011922A95E9F79983DA8291E09E8390EA34
:1016F00098879AEF99872091F2013091F301275F43
:101700003F4F3C832B838D83C7010E94960A49E09B
:1017100050E0B80180E00E94A10A0E945F099BC0CE
:10172000C7010E94960A0E948E0DBE016B5E7F4F1C
:101730000E94300D009719F00CF08DC090C081E030
:10174000D8120EC08B8D9C8D089719F481E0809380
:10175000EF018091EF0181112FC062EB71E031C088
:10176000E3E0DE127CC08F89882349F1823029F4BE
:1017700040E86DE080ED91E01CC0813029F440E844
:101780006BE084EC91E015C0833009F068C00E94E2
:101790008E0D8E010F5F1F4FB8010E944F0DF80193
:1017A00001900020E9F73197E01BF10B40E06E2F2C
:1017B000C8010E94FF084DC060EA71E002C06EEDF2
:1017C00071E06115710509F44AC0FB01449150E0D4
:1017D00080E80E94A10A3FC0273009F440C02830A9
:1017E00021F481E08093F10036C02930A1F53370F7
:1017F000B1F5EDE0F1E081E021E036E3908199235D
:1018000061F08093E9002093EB0091919093EC00BC
:101810003093ED008F5F873089F78EE78093EA0081
:101820001092EA008F898093F60115C08B8D9C8DF4
:101830000E94960A898D811105C0CE0145960E94AD
:101840007E0707C00E948E0DBE016B5E7F4F0E9417
:101850006E0D882321F08EEF8093E80003C081E2B3
:101860008093EB006C960FB6F894DEBF0FBECDBF31
:10187000DF91CF91FF91EF91BF91AF919F918F91A8
:101880007F916F915F914F913F912F911F910F9198
:10189000FF90EF90DF900F900FBE0F901F90189564
:1018A0008093E9008091F200882319F08AE3809305
:1018B000E80008951F920F920FB60F9211242F93F4
:1018C0003F934F935F936F937F938F939F93AF93C8
:1018D000BF93CF93EF93FF93C091E1008091E1001C
:1018E000837F8093E1008093E100C3FF0FC01092DB
:1018F000E90081E08093EB001092EC0082E380939A
:10190000ED001092F60188E08093F000C2FF19C04C
:1019100083E00E94500C8091F801882339F0809177
:10192000F80181508093F801882389F18091F701B3
:10193000882339F08091F70181508093F701882343
:1019400041F1C4FF10C08091E2008E7E81608093DF
:10195000E2008091E1008F7E8093E1008091F401AC
:101960008E7E806111C0C0FF16C08091E2008E7E25
:1019700080618093E2008091E1008E7E8093E1009F
:101980008091F4018E7E81608093F40104C05D98A3
:10199000CDCF2898D6CFFF91EF91CF91BF91AF9146
:1019A0009F918F917F916F915F914F913F912F9177
:1019B0000F900FBE0F901F9018951092F601109285
:1019C000F5011092F4010E943C09E1EEF0E0808103
:1019D0008E7E80838DE08093E200559A209A5D98F8
:1019E0002898089508950E947D050E94F20C8EEEBD
:1019F00091E00E94DD0C0E94A202C0E0D0E00E94B3
:101A000036032097E1F30E940000F9CF0895EF928A
:101A1000FF920F931F93CF93DF937B01FC01C28151
:101A2000D38100E010E0209781F0E881F981028005
:101A3000F381E02DB701CE01099597FD08C0080F8D
:101A4000191F0884D985C02DEECFC80102C08FEFC1
:101A50009FEFDF91CF911F910F91FF90EF9008952D
:101A60000F931F93CF93DF938B01FC01C281D3812E
:101A7000209771F0E881F9810480F581E02DB801AB
:101A8000CE010995009731F40884D985C02DF0CF97
:101A900080E090E0DF91CF911F910F9108950F9317
:101AA0001F93CF93DF938B01FC01C281D3812097D9
:101AB00071F0E881F9810680F781E02DB801CE014F
:101AC0000995080F111D0884D985C02DF0CFF801A4
:101AD0001082DF91CF911F910F9108950F931F9363
:101AE000CF93DF938B01FC01C281D381209771F0EA
:101AF000E881F9810190F081E02DB801CE010995CE
:101B0000811106C00884D985C02DF0CF80E001C0C6
:101B100081E0DF91CF911F910F9108958091FD0198
:101B200081110DC082E08093F90184E08093FA0175
:101B30001092FC011092FB0181E08093FD0189EF7E
:101B400091E00895A1E21A2EAA1BBB1BFD010DC056
:101B5000AA1FBB1FEE1FFF1FA217B307E407F5075D
:101B600020F0A21BB30BE40BF50B661F771F881F39
:101B7000991F1A9469F760957095809590959B01CF
:101B8000AC01BD01CF010895EE0FFF1F0590F49148
:101B9000E02D099411E0C6EED1E004C0FE010E94E0
:0E1BA000C60D2296C83ED107C9F7F894FFCFB4
:101BAE00FFFFFFFF00E100000000000000C1808188
:101BBE00000000647A69616C6100636F9C006F6461
:101BCE00656272616C656D203A0070727A6564753B
:101BDE0000737A79626B6F00776F6C6E6F00776C43
:101BEE0065776F00775F707261776F0074796C75CF
:101BFE000073746F70000000000016075D07400749
:101C0E0050072C073D070D0A006E616E00696E6667
:081C1E00006F7666002E000045
:00000001FF
